:020000040800F2
:100000000000012055310008992D00089B2D0008A3
:100010009D2D00089F2D0008A12D00080000000064
:10002000000000000000000000000000A32D0008F8
:10003000A52D000800000000A72D0008A92D00082C
:10004000A5310008A5310008A5310008A531000838
:10005000A5310008A5310008A5310008A531000828
:10006000A5310008A5310008A5310008A531000818
:10007000A5310008A5310008AD2D0008B92D0008F4
:10008000A5310008A5310008A5310008A5310008F8
:10009000A5310008A5310008A5310008A5310008E8
:1000A000A5310008A5310008A5310008A5310008D8
:1000B000C52D0008A5310008A5310008A5310008AC
:1000C000A5310008A5310008A5310008A5310008B8
:1000D000A5310008D12D0008A5310008A531000880
:1000E000A5310008A5310008A5310008A531000898
:1000F000A5310008A5310008A5310008A531000888
:10010000A53100080000000000000000A531000833
:10011000A5310008A5310008A5310008A531000867
:10012000A5310008A5310008A5310008A531000857
:10013000A5310008A5310008000000000000000003
:10014000A5310008A5310008A53100080000000015
:10015000000000000000000000000000000000009F
:10016000A5310008A5310008A5310008A531000817
:10017000A5310008A5310008A5310008A531000807
:10018000A5310008A53100080000000000000000B3
:04019000A53100088D
:1001A00010B5054C237833B9044B13B10448AFF3B1
:1001B00000800123237010BDDC010020000000003E
:1001C000D052000808B5034B1BB103490348AFF3F5
:1001D000008008BD00000000E0010020D0520008AF
:1001E000034613F8012B002AFBD1181A0138704777
:1001F00001F0FF01102A2BDB10F0070F08D010F8D8
:10020000013B013A8B422DD010F0070F42B3F6D1DB
:10021000F0B441EA012141EA014122F007047FF0F4
:1002200000070023F0E80256083C85EA010586EA4B
:10023000010685FA47F5A3FA87F586FA47F6A5FA87
:1002400087F68EB9EED1F0BC01F0FF0102F0070293
:1002500032B110F8013B013A83EA010313B1F8D13E
:100260000020704701387047002D06BF354603381F
:10027000073815F0010F07D1013015F4807F02BF58
:10028000013015F4C03F0130F0BC0138704700BFA9
:1002900081F0004102E000BF83F0004330B54FEA37
:1002A00041044FEA430594EA050F08BF90EA020FA4
:1002B0001FBF54EA000C55EA020C7FEA645C7FEA37
:1002C000655C00F0E2804FEA5454D4EB5555B8BF5A
:1002D0006D420CDD2C4480EA020281EA030382EACB
:1002E000000083EA010180EA020281EA0303362D5D
:1002F00088BF30BD11F0004F4FEA01314FF4801C30
:100300004CEA113102D0404261EB410113F0004F41
:100310004FEA03334CEA133302D0524263EB4303F8
:1003200094EA050F00F0A780A4F10104D5F1200E96
:100330000DDB02FA0EFC22FA05F2801841F10001F1
:1003400003FA0EF2801843FA05F359410EE0A5F1C5
:1003500020050EF1200E012A03FA0EFC28BF4CF0F6
:10036000020C43FA05F3C01851EBE37101F00045AC
:1003700007D54FF0000EDCF1000C7EEB00006EEBB9
:100380000101B1F5801F1BD3B1F5001F0CD3490843
:100390005FEA30004FEA3C0C04F101044FEA44529A
:1003A00012F5800F80F09A80BCF1004F08BF5FEA21
:1003B000500C50F1000041EB045141EA050130BD01
:1003C0005FEA4C0C404141EB010111F4801FA4F1A4
:1003D0000104E9D191F0000F04BF01460020B1FAF9
:1003E00081F308BF2033A3F10B03B3F120020CDA31
:1003F0000C3208DD02F1140CC2F10C0201FA0CF00F
:1004000021FA02F10CE002F11402D8BFC2F1200C73
:1004100001FA02F120FA0CFCDCBF41EA0C01904029
:10042000E41AA2BF01EB0451294330BD6FEA040472
:100430001F3C1CDA0C340EDC04F11404C4F120025D
:1004400020FA04F001FA02F340EA030021FA04F36F
:1004500045EA030130BDC4F10C04C4F1200220FAC6
:1004600002F001FA04F340EA0300294630BD21FA04
:1004700004F0294630BD94F0000F83F4801306BFCA
:1004800081F480110134013D4EE77FEA645C18BFBE
:100490007FEA655C29D094EA050F08BF90EA020F55
:1004A00005D054EA000C04BF1946104630BD91EA4D
:1004B000030F1EBF0021002030BD5FEA545C05D150
:1004C0004000494128BF41F0004130BD14F580048F
:1004D0003CBF01F5801130BD01F0004545F0FE4103
:1004E00041F470014FF0000030BD7FEA645C1ABF38
:1004F000194610467FEA655C1CBF0B46024650EA6F
:10050000013406BF52EA033591EA030F41F400219A
:1005100030BD00BF90F0000F04BF0021704730B520
:100520004FF4806404F132044FF000054FF00001F5
:1005300050E700BF90F0000F04BF0021704730B5B6
:100540004FF4806404F1320410F0004548BF40428B
:100550004FF000013EE700BF42004FEAE2014FEAE0
:1005600031014FEA02701FBF12F07F4393F07F4FBB
:1005700081F06051704792F0000F14BF93F07F4FED
:10058000704730B54FF4607401F0004521F0004130
:1005900020E700BF50EA010208BF704730B54FF0B6
:1005A00000050AE050EA010208BF704730B511F0BB
:1005B000004502D5404261EB41014FF4806404F1F3
:1005C00032045FEA915C3FF4DCAE4FF003025FEA75
:1005D000DC0C18BF03325FEADC0C18BF033202EBFD
:1005E000DC02C2F1200300FA03FC20FA02F001FA57
:1005F00003FE40EA0E0021FA02F11444C1E600BFF6
:1006000070B54FF0FF0C4CF4E06C1CEA11541DBFA8
:100610001CEA135594EA0C0F95EA0C0F00F0DEF873
:100620002C4481EA030621EA4C5123EA4C5350EA58
:10063000013518BF52EA033541F4801143F48013A9
:1006400038D0A0FB02CE4FF00005E1FB02E506F03A
:100650000042E0FB03E54FF00006E1FB03569CF08F
:10066000000F18BF4EF0010EA4F1FF04B6F5007F95
:1006700064F5407404D25FEA4E0E6D4146EB060607
:1006800042EAC62141EA55514FEAC52040EA5E5090
:100690004FEACE2EB4F1FD0C88BFBCF5E06F1ED83A
:1006A000BEF1004F08BF5FEA500E50F1000041EB71
:1006B000045170BD06F0004646EA010140EA02001E
:1006C00081EA0301B4EB5C04C2BFD4EB0C0541EA40
:1006D000045170BD41F480114FF0000E013C00F355
:1006E000AB8014F1360FDEBF002001F0004170BD79
:1006F000C4F10004203C35DA0C341BDC04F1140492
:10070000C4F1200500FA05F320FA04F001FA05F21D
:1007100040EA020001F0004221F0004110EBD370EA
:1007200021FA04F642EB06015EEA430E08BF20EA16
:10073000D37070BDC4F10C04C4F1200500FA04F3B9
:1007400020FA05F001FA04F240EA020001F000414B
:1007500010EBD37041F100015EEA430E08BF20EABE
:10076000D37070BDC4F1200500FA05F24EEA020E06
:1007700020FA04F301FA05F243EA020321FA04F035
:1007800001F0004121FA04F220EA020000EBD370EC
:100790005EEA430E08BF20EAD37070BD94F0000FEC
:1007A0000FD101F00046400041EB010111F4801F20
:1007B00008BF013CF7D041EA060195F0000F18BFD1
:1007C000704703F00046520043EB030313F4801F0D
:1007D00008BF013DF7D043EA0603704794EA0C0FC7
:1007E0000CEA135518BF95EA0C0F0CD050EA4106DD
:1007F00018BF52EA4306D1D181EA030101F000415A
:100800004FF0000070BD50EA410606BF1046194681
:1008100052EA430619D094EA0C0F02D150EA01368D
:1008200013D195EA0C0F05D152EA03361CBF1046CE
:1008300019460AD181EA030101F0004141F0FE416D
:1008400041F470014FF0000070BD41F0FE4141F4F1
:10085000780170BD70B54FF0FF0C4CF4E06C1CEAF1
:1008600011541DBF1CEA135594EA0C0F95EA0C0FA6
:1008700000F0A7F8A4EB050481EA030E52EA033561
:100880004FEA013100F088804FEA03334FF0805582
:1008900045EA131343EA12634FEA022245EA1115AF
:1008A00045EA10654FEA00260EF000419D4208BF60
:1008B000964244F1FD0404F5407402D25B084FEA0D
:1008C0003202B61A65EB03055B084FEA32024FF4B9
:1008D00080104FF4002CB6EB020E75EB030E22BF16
:1008E000B61A754640EA0C005B084FEA3202B6EBD6
:1008F000020E75EB030E22BFB61A754640EA5C0085
:100900005B084FEA3202B6EB020E75EB030E22BF14
:10091000B61A754640EA9C005B084FEA3202B6EB15
:10092000020E75EB030E22BFB61A754640EADC00D4
:1009300055EA060E18D04FEA051545EA16754FEA36
:1009400006164FEAC30343EA52734FEAC2025FEA54
:100950001C1CC0D111F4801F0BD141EA00014FF0E3
:1009600000004FF0004CB6E711F4801F04BF0143B4
:100970000020B4F1FD0C88BFBCF5E06F3FF6AFAED0
:10098000B5EB030C04BFB6EB020C5FEA500C50F160
:10099000000041EB045170BD0EF0004E4EEA1131E3
:1009A00014EB5C04C2BFD4EB0C0541EA045170BDEA
:1009B00041F480114FF0000E013C90E645EA060E2E
:1009C0008DE60CEA135594EA0C0F08BF95EA0C0F5C
:1009D0003FF43BAF94EA0C0F0AD150EA01347FF4A4
:1009E00034AF95EA0C0F7FF425AF104619462CE77B
:1009F00095EA0C0F06D152EA03353FF4FDAE1046DE
:100A0000194622E750EA410618BF52EA43067FF42E
:100A1000C5AE50EA41047FF40DAF52EA43057FF4BE
:100A2000EBAE12E74FF0FF3C06E000BF4FF0010CC9
:100A300002E000BF4FF0010C4DF804CD4FEA410C2D
:100A40007FEA6C5C4FEA430C18BF7FEA6C5C1BD0FA
:100A500001B050EA410C0CBF52EA430C91EA030F7B
:100A600002BF90EA020F0020704710F1000F91EAD8
:100A7000030F58BF994208BF90422CBFD8176FEAA6
:100A8000E37040F0010070474FEA410C7FEA6C5C74
:100A900002D150EA013C07D14FEA430C7FEA6C5C7B
:100AA000D6D152EA033CD3D05DF8040B704700BFA7
:100AB0008446104662468C461946634600E000BFF5
:100AC00001B5FFF7B7FF002848BF10F1000F01BDC7
:100AD0004DF808EDFFF7F4FF0CBF012000205DF892
:100AE00008FB00BF4DF808EDFFF7EAFF34BF012017
:100AF00000205DF808FB00BF4DF808EDFFF7E0FFB0
:100B000094BF012000205DF808FB00BF4DF808ED00
:100B1000FFF7CEFF94BF012000205DF808FB00BF67
:100B20004DF808EDFFF7C4FF34BF012000205DF849
:100B300008FB00BF4FEA410C7FEA6C5C02D150EA2F
:100B4000013C0AD14FEA430C7FEA6C5C02D152EAC5
:100B5000033C02D14FF0000070474FF00100704796
:100B60004FEA410212F5001215D211D56FF47873D5
:100B7000B3EB625212D94FEAC12343F0004343EA78
:100B8000505311F0004F23FA02F018BF4042704753
:100B90004FF00000704750EA013005D111F00040DD
:100BA00008BF6FF0004070474FF00000704700BF73
:100BB00038B50E4A0E4B054618784FF47A73B3FBDE
:100BC000F0F31068B0FBF3F000F0A0F8044658B959
:100BD0000F2D09D8024629464FF0FF3000F056F895
:100BE000044B20461D6038BD012038BD08000020A0
:100BF0000000002004000020074A08B5136843F0F5
:100C000010031360032000F02FF80020FFF7D0FF3F
:100C100002F0A6F8002008BD00200240034A044B61
:100C200011681B780B441360704700BF0802002056
:100C300000000020014B1868704700BF0802002028
:100C400038B50446FFF7F6FF631C1CBF054B1B7845
:100C5000054618BFE418FFF7EDFF401B8442FAD8A1
:100C600038BD00BF00000020074AD36823F4E063CA
:100C70001B041B0C43F0BF63000243F4003300F479
:100C8000E0600343D360704700ED00E0174B30B5E0
:100C9000DC68C4F30224C4F10703251D042B28BF1C
:100CA0000423062D4FF0010505FA03F303F1FF338A
:100CB0008CBF033C00241940A14005FA04F4013C18
:100CC0002240002842EA01024FEA0212AFBF00F1BF
:100CD000604000F00F00064BD2B2A5BF00F56140A6
:100CE000D2B21A5480F8002330BD00BF00ED00E0FE
:100CF00014ED00E04209012300F01F0003FA00F0A8
:100D0000014B43F82200704700E100E00138B0F1E8
:100D1000807F0AD2064B074A5860F02182F82310E0
:100D20000020072298601A6070470120704700BFBA
:100D300010E000E000ED00E001680C4B994210B5B6
:100D40004FF0140409D80A4A0A44B2FBF4F29200A4
:100D50000264A3F20743C36310BD064B0B44B3FB0D
:100D6000F4F39B000364044BF5E700BF0704024063
:100D7000F8FFFDBFF8FBFDBF0004024038B5044694
:100D800008B30223856880F82130436801682B434B
:100D9000C5680A682B4305692B4345692B43856960
:100DA0002B43C56922F47F5222F030022B431343B8
:100DB0000B60FFF7C1FF00200123A06384F82130FE
:100DC00084F8200038BD012038BDF0B590F82040EF
:100DD000012C35D090F821500124A54280F8204004
:100DE0004FF000064FF0020428D180F8214004683B
:100DF00086632668076C26F001062660C66BBD4038
:100E00007560636043680568102BC36A0BBFA260FE
:100E1000A160E160E2604BB1236843F00E03236000
:100E20002B6843F001032B600020F0BD236843F0E2
:100E30000A032360236823F00403F0E780F82060AE
:100E40000220F0BD90F82120022A10B503D0042220
:100E50008263012010BD0268C46B1168436B21F0EE
:100E60000E011160116821F001011160026C012175
:100E700001FA02F26260002480F8211080F820401C
:100E800013B19847204610BD184610BDC16B026CC7
:100E9000036870B40E681D680424944026420ED086
:100EA00015F0040F0BD01A6892065EBF1A6822F084
:100EB00004021A60C36A4C6073B370BC1847022402
:100EC0009440264212D015F0020F0FD01A689506F2
:100ED00006D41A6822F00A021A60012380F8213031
:100EE00000234C6080F82030836AE5E708249440B2
:100EF000344211D02C070FD51C6824F00E041C605E
:100F0000012303FA02F24A60836380F82130002350
:100F100080F82030036BCFE770BC70472DE9F74FA6
:100F2000D1F80080DFF89091614A002338FA03F489
:100F300002D103B0BDE8F08F4FF0010E0EFA03FEB0
:100F400018EA0E0600F0A6804C6824F01007022F65
:100F500016D14FEAD30A00EB8A0A03F0070BDAF83E
:100F600020504FEA8B0B4FF00F0C0CFA0BFC25EACC
:100F70000C0C0D6905FA0BF545EA0C05CAF8205072
:100F80004FEA430A0325D0F800B005FA0AF5ED430D
:100F900004F0030C0BEA050B0CFA0AFC013F4CEAC7
:100FA0000B0C012FC0F800C011D8876807EA050BA9
:100FB000CF6807FA0AFC4CEA0B078760476827EA04
:100FC0000E0EC4F300179F4047EA0E074760C7683C
:100FD0003D408F6807FA0AF73D43C560E50059D5E3
:100FE000D9F8185045F00105C9F81850D9F818502B
:100FF00023F0030707F1804705F0010507F5803767
:10100000019503F0030C019DBD684FEA8C0C4FF075
:101010000F0E0EFA0CFEB0F1904F25EA0E0E3BD0EB
:10102000244DA8423AD005F58065A84238D005F590
:101030008065A84236D005F58065A84234D005F514
:101040008065A84232D005F58065A84214BF072507
:10105000062505FA0CF545EA0E05BD601568F7434F
:1010600014F4803F0CBF3D4035431560556814F4BF
:10107000003F0CBF3D4035435560956814F4801F18
:101080000CBF3D4035439560D568A40254BF3D4038
:101090003543D560013349E70025DAE70125D8E774
:1010A0000225D6E70325D4E70425D2E70525D0E7B6
:1010B0000004014000040048001002400369194286
:1010C00014BF0120002070470AB18161704781621E
:1010D0007047436959404161704700002DE9F3476B
:1010E000054618B9012002B0BDE8F0870368DF07A4
:1010F00011D42B689E0700F188802B681C0700F133
:10110000FC802B68580700F14581AA69002A40F04D
:10111000DC810020E7E7BD4C636803F00C03042B7F
:101120000AD0636803F00C03082B19D1636803F439
:10113000C033B3F5803F13D14FF4003393FAA3F2D9
:10114000216893FAA3F3B3FA83F303F01F03012298
:1011500002FA03F30B42CCD06B68002BC9D1C1E774
:101160006B68B3F5803F1ED1236843F4803323605E
:10117000FFF760FD4FF400368046012796FAA6F38C
:10118000226896FAA6F3B3FA83F303F01F0307FA73
:1011900003F31342ADD1FFF74DFDA0EB0800642827
:1011A000ECD903209FE70BBB236823F48033236033
:1011B000236823F480232360FFF73CFD4FF40036BF
:1011C0008046012796FAA6F3226896FAA6F3B3FAA8
:1011D00083F303F01F0307FA03F3134289D0FFF7E9
:1011E00029FDA0EB08006428ECD9DAE7B3F5A02FBD
:1011F000236803D143F480232360B5E723F48033CD
:101200002360236823F48023B1E7804C636813F0E4
:101210000C0F0AD0636803F00C03082B25D1636818
:1012200003F4C033B3F5004F1FD1022393FAA3F2A6
:10123000216893FAA3F3B3FA83F303F01F030122A7
:1012400002FA03F30B4203D0EB6893427FF44AAFF8
:101250002168F82393FAA3F3B3FA83F22B6993403E
:1012600021F0F8021343236047E7EA6801260AB336
:1012700096FAA6F3B3FA83F303F1845303F58413C8
:101280009B0002271E60FFF7D5FC804697FAA7F364
:10129000226897FAA7F3B3FA83F303F01F0306FA61
:1012A00003F31342D4D1FFF7C5FCA0EB08000228DA
:1012B000ECD976E796FAA6F3B3FA83F303F18453F5
:1012C00003F584139B0002271A60FFF7B3FC8046E6
:1012D00097FAA7F3226897FAA7F3B3FA83F303F018
:1012E0001F0306FA03F313423FF407AFFFF7A2FC14
:1012F000A0EB08000228EBD953E76A69434E444942
:1013000001241AB394FAA4F3B3FA83F30B449B00B9
:1013100002271C60FFF78EFC804697FAA7F397FA26
:10132000A7F397FAA7F3726A97FAA7F3B3FA83F3CE
:1013300003F01F0304FA03F313427FF4E2AEFFF756
:1013400079FCA0EB08000228E7D92AE794FAA4F375
:10135000B3FA83F30B449B0002271A60FFF76AFC81
:10136000804697FAA7F397FAA7F397FAA7F3726A5A
:1013700097FAA7F3B3FA83F303F01F0304FA03F316
:1013800013423FF4BEAEFFF755FCA0EB0800022865
:10139000E7D906E71D4CE369D90034D4E36943F08B
:1013A0008053E361E36903F080530193019B0126BD
:1013B000184F3B68DA052FD5AB68012B3DD1236A66
:1013C00043F001032362FFF735FC02278246B9464A
:1013D0004FF0010897FAA7F397FAA7F3002B6CD008
:1013E000226A99FAA9F3B3FA83F303F01F0308FA08
:1013F00003F3134258D0002E3FF487AEE36923F085
:101400008053E36181E60026D2E700BF001002406E
:1014100020819010007000403B6843F480733B6073
:10142000FFF708FC80463B68DB05C5D4FFF702FCEC
:10143000A0EB08006428F6D9B3E63BBB236A23F08F
:1014400001032362236A23F004032362FFF7F2FB04
:1014500002278246B9464FF0010897FAA7F397FA98
:10146000A7F373B3226A99FAA9F3B3FA83F303F0EB
:101470001F0308FA03F31342BDD0FFF7DBFB41F271
:101480008833A0EB0A009842E7D98AE6052B236A45
:1014900003D143F00403236291E723F001032362A5
:1014A000236A23F004038DE7FFF7C4FB41F288337E
:1014B000A0EB0A0098428DD973E697FAA7F3626A07
:1014C0008FE797FAA7F3626ACDE7444C636803F0AD
:1014D0000C03082B3FF406AE022A4FF0807358D15C
:1014E00093FAA3F3B3FA83F303F1845303F584135C
:1014F0009B0000221A60FFF79DFB4FF000778046AB
:10150000012697FAA7F3226897FAA7F3B3FA83F3B1
:1015100003F01F0306FA03F3134233D1E36A6A6A46
:1015200023F00F031343E36262682B6AE96922F434
:1015300076120B43134363604FF0807393FAA3F367
:10154000B3FA83F303F1845303F584139B004FF044
:1015500000751E60FFF76EFB0126074695FAA5F39E
:10156000226895FAA5F3B3FA83F303F01F0306FA92
:1015700003F313427FF4CDADFFF75CFBC01B0228E1
:10158000ECD90EE6FFF756FBA0EB08000228B8D90D
:1015900007E693FAA3F3B3FA83F303F1845303F555
:1015A00084139B0000221A60FFF744FB4FF0007584
:1015B0000746012695FAA5F3226895FAA5F3B3FA32
:1015C00083F303F01F0306FA03F313423FF4A1ADC4
:1015D000FFF730FBC01B0228ECD9E2E50010024007
:1015E00011494B6803F00C02082A1AD14FF470120B
:1015F00092FAA2F20F20B2FA82F2C96A90FAA0F02F
:10160000B0FA80F001F00F0103F47013D340C14031
:10161000064A0748415C0748B0FBF1F1D05C4843FB
:1016200070470448704700BF00100240E8520008AD
:10163000F852000800127A002DE9F0410D460446E8
:1016400010B90120BDE8F0814C4A136803F007038C
:101650008B422ED32268910736D4D2073CD4474A16
:10166000136803F007039D4275D32268444D12F0BE
:10167000040F7CD1130706D56B68226923F46053ED
:1016800043EAC2036B60FFF7ABFF6B68F02292FA8C
:10169000A2F2B2FA82F203F0F003D340394AD35CEB
:1016A000D840394B18600020FFF782FA0020BDE8CF
:1016B000F081136823F007030B431360136803F0F2
:1016C00007039942BDD1C5E72D49A0684B6823F0B7
:1016D000F00303434B60C0E76268294E012A27D11B
:1016E0004FF4003393FAA3F1316893FAA3F3B3FAFA
:1016F00083F303F01F0302FA03F30B42A1D07368D4
:1017000023F003031A437260FFF794FA41F288381A
:1017100007467368626803F00C03B3EB820F9ED038
:10172000FFF788FAC01B4045F3D90320BDE8F081DC
:10173000022A0CBF4FF00073022393FAA3F1306822
:1017400093FAA3F3B3FA83F303F01F03012101FA21
:1017500003F30342D2E7136823F007032B4313601C
:10176000136803F007039D427FF46BAF7DE76B685E
:10177000E16823F4E0630B436B607BE700200240E9
:10178000001002401353000808000020084B4FF4DB
:10179000E0625B6892FAA2F2B2FA82F203F4E063CA
:1017A000D340044AD35C044A1068D840704700BF55
:1017B000001002402353000808000020084B4FF49B
:1017C00060525B6892FAA2F2B2FA82F203F46053BA
:1017D000D340044AD35C044A1068D840704700BF25
:1017E00000100240235300080800002003682DE980
:1017F000F347DF03044623D59B4DEB69DE0000F180
:10180000D780EB6943F08053EB61EB6903F08053C1
:101810000193019B0126954F3B68D80540F1CA8092
:101820002B6A13F4407340F0DA802B6A626823F469
:10183000407313432B621EB1EB6923F08053EB61BD
:101840002068C30706D5884AA168136B23F00303F9
:101850000B431363870706D5834AE168136B23F4B0
:1018600040330B431363460706D57F4A2169136B48
:1018700023F440230B431363850606D57A4AE169B6
:10188000136B23F010030B431363810306D5764AD1
:10189000616D536823F480030B435360420606D501
:1018A000714A216A136B23F020030B431363430334
:1018B00006D56D4A616A136B23F040030B43136333
:1018C000070706D5684A6169136B23F440130B437D
:1018D0001363C60606D5644AA169136B23F440035B
:1018E0000B431363850506D55F4A216B536823F4C8
:1018F00000030B435360010606D55B4AA16AD36A15
:1019000023F4F8730B43D362C20506D5564AE16A45
:10191000D36A23F478530B43D362C30406D5524AE7
:10192000616B136B23F480730B431363870406D539
:101930004D4A216C136B23F400730B431363C602EF
:1019400006D5494AA16B136B23F080730B431363D5
:10195000850206D5444AE16B136B23F000730B43F9
:101960001363410206D5404A616C136B23F4806314
:101970000B431363020206D53B4AA16C136B23F49D
:1019800000630B431363C30106D5374AE16C136B45
:1019900023F400530B43136310F000701CD0324A41
:1019A000216D136B23F400430B431363002013E0FA
:1019B000002630E73B6843F480733B60FFF73AF959
:1019C00080463B68D9053FF52BAFFFF733F9A0EB15
:1019D00008006428F5D9032002B0BDE8F0876268EA
:1019E00002F4407293423FF420AF296A4FF48033EF
:1019F00021F4407093FAA3F2DFF874E0B2FA82F2B5
:101A0000724492000127176093FAA3F3B3FA83F3A9
:101A100073449B0000221A60CA0728627FF505AF55
:101A2000FFF708F94FF002088246C14698FAA8F37A
:101A300098FAA8F3A3B12A6A99FAA9F3B3FA83F33F
:101A400003F01F0307FA03F313427FF4EEAEFFF730
:101A5000F1F841F28833A0EB0A009842E6D9BAE7E0
:101A600098FAA8F36A6AE7E70010024000700040A5
:101A7000008190100268022380F83D30136843F023
:101A800001031360012380F83D3000207047036894
:101A9000DA6842F00102DA601A6842F001021A6064
:101AA00000207047704770477047704703681A6995
:101AB000910710B504460FD5DA6892070CD56FF080
:101AC00002021A619B6901229907027700F0858062
:101AD000FFF7E9FF0023237723681A69520710D51F
:101AE000DA6850070DD56FF004021A619B69022273
:101AF00013F4407F2277204675D0FFF7D4FF0023F0
:101B0000237723681A6911070FD5DA6812070CD5F5
:101B10006FF008021A61DB6904229B0722772046D6
:101B200067D0FFF7C0FF0023237723681A69D00628
:101B300010D5DA68D1060DD56FF010021A61DB6995
:101B4000082213F4407F2277204658D0FFF7ABFFDE
:101B50000023237723681A69D20708D5DA68D007EB
:101B600005D56FF001021A61204600F01DFF2368C1
:101B70001A69110608D5DA68120605D56FF08002D9
:101B80001A61204600F0B1F923681A69D00508D51A
:101B9000DA68110605D56FF480721A61204600F0EC
:101BA000A5F923681A69520608D5DA68500605D5E2
:101BB0006FF040021A612046FFF777FF23681A6929
:101BC000910622D5DA6892061FD56FF020022046D2
:101BD0001A61BDE8104000F087B9FFF763FF2046A7
:101BE000FFF762FF76E7FFF75DFF2046FFF75CFF38
:101BF00085E7FFF757FF2046FFF756FF93E7FFF70C
:101C000051FF2046FFF750FFA2E710BD324A03689C
:101C1000904212D0B0F1804F0FD0A2F59432904292
:101C20000BD002F58062904207D002F596329042C6
:101C300003D002F5E052904215D14A6823F07003B8
:101C40001343254A90421DD0B0F1804F1AD0A2F51F
:101C50009432904216D002F58062904212D002F582
:101C6000963290420ED01D4A90420BD002F580620F
:101C7000904207D002F58062904203D002F50062E4
:101C8000904203D1CA6823F4407313434A6923F096
:101C90008003134303608B68C3620B6883620E4B3F
:101CA000984213D003F5006398420FD003F54063C8
:101CB00098420BD003F58063984207D003F5806308
:101CC000984203D003F50063984201D10B69036386
:101CD00001234361704700BF002C014000400140D8
:101CE00010B50446A0B190F83D3003F0FF021BB9D7
:101CF00080F83C2001F032F9022384F83D3020685E
:101D0000211DFFF783FF012384F83D30002010BD23
:101D1000012010BD10B584680A4324F47F4442EAD0
:101D200003232343836010BD90F83C30012B70B532
:101D300004464FF002001AD084F83D0020680123C9
:101D400084F83C308268524B134083600B68402B10
:101D500075D018D8102B00F08F8009D8002B00F018
:101D600085800123002084F83D3084F83C0070BD5C
:101D7000202B00F08780302BF3D1836823F0700391
:101D800043F0370333E0702B33D01BD8502B3FD0B8
:101D9000602BE6D14D68CE68016A21F01001016226
:101DA0008269036A22F4704223F0A00343EA051318
:101DB00042EA063282610362836823F0700343F0D3
:101DC000670314E0B3F5805F0CD0B3F5005FC8D1B2
:101DD000CB684A688968FFF79DFF2268936843F4DF
:101DE000804313E0836823F4803323F00703836088
:101DF000B7E7CB684A688968FFF78CFF2268936869
:101E000023F4803323F0770343F077039360A8E74C
:101E10004A68CE68016A056A25F001050562836992
:101E200021F00A0123F0F00343EA06130A43836119
:101E30000262836823F0700343F05703D7E74A68D0
:101E4000CE68016A056A25F001050562836921F003
:101E50000A0123F0F00343EA06130A438361026296
:101E6000836823F0700343F04703C0E7836823F0DF
:101E7000700343F00703BAE7836823F0700343F06D
:101E80001703B4E7836823F0700343F02703AEE73A
:101E90008800FEFF90F83C30012B30B520D002685E
:101EA000104D53689468AA4207D005F50065AA4210
:101EB00003D005F5E055AA4203D14D6823F4700321
:101EC0002B430D68896823F070032B4324F08004B2
:101ED000536021430023916080F83C30184630BDA8
:101EE000022030BD002C01407047704770470368E6
:101EF0001A6822F490721A609A6822F001029A60BD
:101F0000202380F86A30704738B50446134694F8A9
:101F10006920202A2BD141B33BB394F86820012AD1
:101F200025D0012284F86820206EA4F852300025C4
:101F30002122E56684F869200E4AA4F85030E16455
:101F400082620D4AC2620D4A0263226845632832EA
:101F5000FEF73BFF236840221A629A6884F86850B3
:101F600042F080029A60284638BD012038BD022028
:101F700038BD00BF831F0008B31F0008C11F000841
:101F8000704708B50368426A1B6813F020030BD141
:101F9000A2F8523013689A6822F080029A601A6898
:101FA00042F040021A6008BD1046FFF7E9FF08BD85
:101FB000704708B5406AFFF7FBFF08BD70477047E0
:101FC000416A08B591F86930212B0DD10B689A68E8
:101FD000120609D50022A1F852201A6822F0C00288
:101FE0001A60202381F8693091F86A30222B09D1D8
:101FF0000B689B685B0605D50023A1F85A3008469C
:10200000FFF775FFCB6E43F01003CB660846FFF772
:10201000D6FF08BD08B5406A0023A0F85A30A0F8E2
:102020005230FFF7CCFF08BD38B50446056821697A
:10203000A268C36928680A4361690A4377491A4359
:1020400001400A432A606A68E168206A22F440522B
:102050000A436A60A968A26921F4306102430A4315
:10206000AA606F4A954212D102F558426D49126B2F
:1020700002F00302B3F5004F8A5C66D0082A19D833
:10208000DFE802F0C2929E18A9181818AC00664A40
:10209000954224D102F5E632126B02F44032B2F5D9
:1020A000803F00F0A08007D8002A00F0AA80B3F596
:1020B000004F76D0012038BDB2F5003F00F0998086
:1020C000B2F5403FF3D1B3F5004F79D160684308D2
:1020D00003F5740303F51053B3FBF0F354E0534AD4
:1020E00095420ED102F5E432126B02F44022B2F5B1
:1020F000802F78D0D8D9B2F5002F7AD0B2F5402F02
:10210000E0E74B4A95420ED102F5E232126B02F43F
:102110004012B2F5801F66D0C6D9B2F5001F68D054
:10212000B2F5401FCEE7434A9542C0D102F5E032F6
:10213000126B02F44002B2F5800F54D0B4D9B2F55C
:10214000000F56D0B2F5400FBCE7082A29D801A3EA
:1021500053F822F0792100089D210008CD200008C5
:10216000A3210008ED210008A3210008A3210008F5
:10217000A3210008F9210008FFF708FB61684A085D
:1021800002EB4003B3FBF1F39BB2002023F00F02FC
:102190002168C3F342031343CB6038BDFFF70EFB46
:1021A000ECE701200023F1E7FFF708FB636800EB91
:1021B0005300B0FBF3F01A4B80B2D860002038BD5A
:1021C0006268530803F5F40303F59053B3FBF2F38D
:1021D0009BB2EB60F2E7FFF703FA17E0626853087F
:1021E00003F50043F2E7B3F5004FF4D1FFF7F8F938
:1021F000C4E7B3F5004FF1D16068430803F58033BD
:102200006AE7B3F5004FB7D0FFF7C0FA636800EB99
:102210005300B0FBF3F080B2E860CFE7F369FFEF63
:1022200000380140085300080044004000480040C6
:10223000004C004000500040436ADA0710B506D554
:102240000168846A4A6822F4003222434A609C078B
:1022500006D50168C46A4A6822F4803222434A6083
:10226000590706D50168046B4A6822F4802222438C
:102270004A601A0706D50168446B4A6822F4004296
:1022800022434A60DC0606D50168846B8A6822F422
:10229000805222438A60990606D50168C46B8A6819
:1022A00022F4005222438A605A060FD50168046C5A
:1022B0004A6822F480122243B4F5801F4A6005D197
:1022C0004A68446C22F4C00222434A601B0606D5C9
:1022D0000268816C536823F400230B43536010BDE4
:1022E0002DE9F041069D04460F46164698462168A2
:1022F000CA6937EA02030CBF01220022B24202D0AF
:102300000020BDE8F0816B1CF2D09DB923681A68EB
:1023100022F4D0721A609A6822F001029A60202397
:1023200084F8693084F86A30002384F86830032028
:10233000BDE8F081FEF77EFCA0EB08008542D6D216
:10234000E4E773B504460026C666FEF773FC23680F
:102350001B681A07054617D423681B685B070AD554
:102360006FF07E43009300222B464FF480012046FD
:10237000FFF7B6FFA0B92023002084F8693084F865
:10238000680084F86A300CE06FF07E4300933246B8
:1023900003464FF400112046FFF7A2FF0028DBD0D0
:1023A000032002B070BD10B5044660B390F86930E8
:1023B00003F0FF021BB980F8682000F039FE2268A4
:1023C000242384F86930136823F001031360204646
:1023D000FFF72AFE012816D0636A13B12046FFF7E3
:1023E0002BFF23685A6822F490425A609A6822F0C0
:1023F0002A029A601A6842F0010220461A60BDE87B
:102400001040FFF79EBF012010BD90F86930212BCE
:1024100027D1B0F8523002689BB24BB9116821F055
:1024200080011160116841F0400111600020704787
:102430008368B3F5805FC36C0ED1016961B933F86D
:10244000021BC1F308011185C364B0F85230013B8F
:102450009BB2A0F85230E9E7591CC1641B78138580
:10246000F3E702207047016808B50B6823F04003CA
:102470000B60202380F86930FFF782FD002008BD43
:1024800090F86A30222B10B5036829D1998C8368A3
:10249000B0F85C20B3F5805F02EA0102436D1BD106
:1024A0000169C9B923F8022B4365B0F85A40013CD1
:1024B000A4B2A0F85A406CB903681A6822F490726A
:1024C0001A609A6822F001029A60202380F86A302C
:1024D000FFF774FD002010BD591C41651A70E4E738
:1024E0009A6942F008029A61022010BD0268D3691D
:1024F000116870B513F00F05044607D19E0605D587
:102500008E0603D5BDE87040FFF7BABF9068002D76
:102510005CD010F0010502D111F4907F56D0D8079D
:1025200007D5CE0505D501201062E06E40F0010010
:10253000E066980706D52DB102201062E06E40F0EB
:102540000400E0665E0706D52DB104201062E06E3F
:1025500040F00200E066180707D58E0600D425B1CA
:1025600008201062E26E0243E266E26E002A50D05A
:10257000980604D58A0602D52046FFF781FFE36E50
:102580001B07204604D423689D6815F0400519D028
:10259000FFF7ADFC23689A6856060FD59A68606EFF
:1025A00022F040029A6048B11A4B4363FEF74AFC9E
:1025B00078B3606EBDE87040436B18472046FFF764
:1025C000FEFC70BDFFF7FBFCE56670BDDD020ED5BD
:1025D00046020CD54FF480131362202384F869302F
:1025E000204684F86A30BDE8704000F015B81D063A
:1025F00006D5080604D52046BDE87040FFF705BFA4
:102600005A0606D54B0604D52046BDE87040FFF7B4
:102610002ABF70BD15200008704700000E4B07B59B
:102620005A6942F001025A615B69002203F001031A
:10263000114601930E20019BFEF728FB0E20FEF7AA
:1026400059FB002211460F20FEF720FB0F20FEF75A
:1026500051FB03B05DF804FB0010024010B5074CBD
:10266000204600F053FA2046CC2100F0A6FA20467E
:102670004421BDE8104000F0A0BA00BF20020020B5
:1026800073B5284B1B7883420D4602D8002002B058
:1026900070BD0001244BC418C35C282BF6D123481D
:1026A00000F070FA0028F1D02048204E00F02EFAF9
:1026B00021461E4800F016FBBE211C4800F07DFAA2
:1026C0000024304600F089FA0DF804000134052C8E
:1026D000F7D19DF800309DF80140144843EA0424E6
:1026E00000F014FA9DF80430C3F34113093307EEE8
:1026F000904A0B2BF8EEE77A0DD00C2B0ED00A2B5C
:1027000014BFB6EE007AB5EE007A67EE877A012044
:10271000C5ED007ABBE7B4EE007AF6E79FED047AE8
:10272000F3E700BFF8010020100200202002002083
:102730000000803D2DE9F041334B1B7883420D466C
:1027400005D90001314BC618C35C282B16D00020D8
:10275000BDE8F0810A2D04D104F0BF0444F0200448
:102760002DE00B2D04D104F0DF0444F0400426E0FA
:102770000C2D04BF44F06004E4B220E0244800F0D3
:10278000C5F93146224800F0ADFABE21204800F0DC
:1027900014FA1F4800F021FA1D4800F01EFA1C48E8
:1027A00000F01BFA07461A4800F017FA804618484E
:1027B00000F013FA092D0446CCD104F09F0414480C
:1027C00000F0A4F93146124800F08CFA4E2110486E
:1027D00000F0F3F939460E4800F0EFF941460C4895
:1027E00000F0EBF921460A4800F0E7F9084800F04C
:1027F0008DF93146064800F075FA4821044800F08A
:10280000DCF90120BDE8F081F80100201002002071
:1028100020020020014800F0B5B900BF20020020CE
:102820002DE9F041FFF7F6FFC0B100240C4F0D4D2C
:10283000A0463B78E0B2834201D8BDE8F0810101B7
:102840006E1886F80C806B5C282B01D00134F0E701
:1028500008312944FFF714FF3073F7E7BDE8F08132
:10286000F801002010020020044B03EB0013187B3A
:1028700010B19B680B600120704700BF1002002060
:102880002DE9F0414FF090414FF48062074619481E
:10289000194D1A4EDFF85C8000F040FA154800F040
:1028A00017FA002148B90C4623B205EB03150026A0
:1028B000F0B2844213D8BDE8F08133784C1C013368
:1028C00005EB01114046337000F01CFA404600F061
:1028D00006FA3378E4B2002BE6D12146E2E72B7802
:1028E000282B03D0FFF7BAFE0136E1E73946FFF7A0
:1028F00021FFF7E72002002010020020F80100204D
:1029000010B514228AB00DEB0200002100F076FC15
:10291000224B5A6942F400225A615A6902F4002299
:102920000192019A5A6942F480025A615A6902F48A
:1029300080020292029A5A6942F400325A615A693C
:1029400002F400320392039A5A6942F480225A61D7
:102950005B6903F48023002204934FF484614FF0F9
:102960009040049BFEF7B0FB4FF400530024059306
:1029700005A90B4B0B4806930794FEF7CFFA4FF4CB
:102980008463059305A901234FF0904006930794B3
:102990000894FEF7C3FA0AB010BD00BF0010024051
:1029A000000021100008004800B593B0FFF738FF81
:1029B000FFF754FE01A90020FFF756FF90B1402217
:1029C000002102A800F01AFC0198FDF7C5FD02469F
:1029D0000B4602A8074901F085F802A982B2064811
:1029E000FFF792FA20214FF09040FEF772FB13B0F0
:1029F0005DF804FB0C5300083C03002030B5A7B081
:102A00002822002106A800F0F9FB1422002101A8C9
:102A100000F0F4FB5822002110A800F0EFFB012386
:102A2000099310230A934FF4004302250D9306A83F
:102A30004FF4E0130E9306950C95FEF74FFB0F2312
:102A40000024019329464FF4806301A80493029562
:102A500003940594FEF7F0FD054B109310A8129413
:102A600013941D941E94FEF7C1FE27B030BD00BF25
:102A70000310100008B5FEF7BFF8FFF7BFFFFFF720
:102A80003FFFFFF7CBFD00F0F7F900F0B3FA00F0DD
:102A90002DFA00F091FA0920FFF7F2FE0148FEF747
:102AA000F6FFFEE77402002070470000034B1B682E
:102AB00000225A625A6A8242FCD9704734020020CE
:102AC0007FB500230293039306A90123049383880F
:102AD00041F8143D0068FEF721FA07B05DF804FBE9
:102AE0007FB5112302930023039306A901230493C6
:102AF000838841F8143D0068FEF710FA07B05DF8CE
:102B000004FB838802681B049361704710B5044678
:102B1000FFF7F7FFFFF7E4FF4FF4F070FFF7C6FF92
:102B20002046FFF7CDFF4620FFF7C0FFA1882068B1
:102B3000FEF7C4FA01464FF4CD70FFF7B7FF084621
:102B400010BD10B5044689B1FFF7DBFFFFF7C8FFE2
:102B50000620FFF7ABFF2046FFF7B2FF4020FFF74C
:102B6000A5FF2046BDE81040FFF7AABFFFF7C9FF49
:102B7000FFF7B6FF3C20FFF799FF2046FFF7A0FFC5
:102B80000A20ECE710B50446FFF7BBFFFFF7A8FFEC
:102B90000220FFF78BFF2046FFF792FF0A20FFF786
:102BA00085FFA1882068FEF789FA01463220FFF7E9
:102BB0007DFF081C18BF012010BD70B506460D46EC
:102BC000082405F001013046013CFFF7BAFF14F07C
:102BD000FF044FEA5505F4D170BD70B506460825CF
:102BE00000243046FFF7CEFF6408013D44EAC014DC
:102BF00015F0FF05E4B2F4D1204670BD2DE9F8438D
:102C0000037A04460D461BB9FFF780FF814628B1C1
:102C10000020A0712072E071BDE8F88329462046AB
:102C2000FFF7CBFF01264F4635462046FFF7AAFFA8
:102C300080462046FFF7A6FFB8F1010F10D101280A
:102C40002ED1402DE4D984F80690B9F1000F01D1BE
:102C500001232372637A002BDAD00120BDE8F883C8
:102C6000804504EB070310D1A279954212D25A7A1B
:102C7000164214BF4FF001084FF00008B8F1000FE2
:102C80000ED1082D00D8E571A9465A7A22EA06022B
:102C90005A720BE00CBF4FF001084FF00008EDE74F
:102CA000E2194FF00108537A3343537241462046EC
:102CB0007600FFF746FF16F0FF0604BF0137FFB2AC
:102CC00005F1010508BF0126072FEDB2ADD9B8E720
:102CD000002282710272C271F021FFF78FBFF021D2
:102CE000FFF78CBF70B50C4655210646FFF765FF10
:102CF000651E073415F8011F3046FFF75EFFA54239
:102D0000F8D170BD00F109030139113013F8012B1E
:102D100001F8012F8342F9D17047000070B50446D5
:102D20000E4615460D48FEF7A5FE20462660A580F6
:102D3000FFF7D6FE2368A2889A616420FDF780FF22
:102D40002046FFF7DEFE6420FDF77AFF2368A288A5
:102D50009A61C820BDE87040FDF772BF34020020C0
:102D60000C4B07B59A6942F001029A619A6902F028
:102D700001020092009ADA6942F08052DA61DB695E
:102D800003F0805301930720019BFDF76DFF03B013
:102D90005DF804FB001002407047FEE7FEE7FEE727
:102DA000FEE7704770477047FDF738BF0148FEF7F0
:102DB0006DB800BFB40200200148FEF767B800BF3D
:102DC000F80200200148FEF771BE00BF7402002027
:102DD0000148FFF78BBB00BF3C03002008B50A4B3E
:102DE0001968024609B90949196018686946024418
:102DF0008A4206D900F0D8F90C2303604FF0FF3067
:102E000008BD1A6008BD00BFFC010020200400209E
:102E10001549D1F8883043F47003C1F88830134B5A
:102E20001A6842F001021A605868114A02405A605A
:102E30001A6822F0847222F480321A601A6822F42E
:102E400080221A605A6822F4FE025A60DA6A22F07E
:102E50000F02DA62186B074A02401A6300229A6076
:102E60004FF000638B60704700ED00E000100240FF
:102E70000CC07FF8CCFC00FF00B5102289B0002107
:102E80000DEB020000F0BAF916481749472200235B
:102E900080E806004FF6FF7201930293039383606C
:102EA000C260036143618361FEF71AFF08B1FFF757
:102EB000FBFD4FF4805304A90A480493FEF734FF46
:102EC00008B1FFF7F1FD002301A906480193029321
:102ED0000393FEF7DFFF08B1FFF7E6FD09B05DF8E9
:102EE00004FB00BF34020020002C014000B510227A
:102EF00089B000210DEB020000F080F9164841F680
:102F00001F424FF08041002380E806004CF24F3210
:102F10000193029303938360C26003618361FEF7B0
:102F2000DFFE08B1FFF7C0FD4FF4805304A90A4843
:102F30000493FEF7F9FE08B1FFF7B6FD002301A9DF
:102F4000054801930393FEF7A5FF08B1FFF7ACFD19
:102F500009B05DF804FB00BF7402002007B50368E8
:102F6000134A93420CD1134B9A6942F400629A615E
:102F70009B6903F400630093009B03B05DF804FBBE
:102F8000B3F1804FF9D103F504331C20DA6942F024
:102F90000102DA61DB69002203F0010301931146AB
:102FA000019BFDF773FE1C20FDF7A4FEE5E700BFC3
:102FB000002C01400010024008B50C480C4B4FF4A7
:102FC000165E80E808400C2200238360C360036122
:102FD00042618361C36103624362FFF7E4F918B1A0
:102FE000BDE80840FFF760BD08BD00BF3C030020FE
:102FF0000038014008B50C480C4B4FF4165E80E8D1
:1030000008400C2200238360C36003614261836136
:10301000C36103624362FFF7C6F918B1BDE8084017
:10302000FFF742BD08BD00BFAC03002000440040D4
:1030300030B514228BB0054600210DEB020000F0E4
:10304000DDF82B683B4A934251D13B4B3B4C9A698C
:103050003B4842F480429A619A6902F480420192AC
:10306000019A5A6942F400225A615B6903F4002311
:103070000293029B302305930223069303230893B4
:1030800005A907230993FDF749FF2E4B23608022F2
:10309000002320466360A360E26023616361A36153
:1030A000E361FDF76BFE08B1FFF7FEFC264A6C6694
:1030B0006562264C102384E80C0020460023802201
:1030C000A360E26023616361A361E361FDF756FEE3
:1030D00008B1FFF7E9FC002225202C661146656245
:1030E000FDF7D4FD2520FDF705FE0BB030BD184AD5
:1030F0009342FAD1104BDA6942F40032DA61DA69AC
:1031000002F400320392039A5A6942F400325A617F
:103110005B6903F400330493049B0C23059302239F
:10312000069305A907234FF090400993FDF7F6FE9B
:10313000DBE700BF0038014000100240F802002029
:10314000000800485800024044000240B402002039
:1031500000440040DFF834D0002103E00C4B5B5802
:10316000435004310B480C4B42189A42F6D30B4A99
:1031700002E0002342F8043B094B9A42F9D3FFF7DF
:1031800047FE00F017F8FFF775FCFEE7000001208E
:103190009055000800000020DC010020DC01002028
:1031A00020040020FEE70000014B1868704700BFB4
:1031B0000C00002070B50D4E0D4CA41BA410002572
:1031C000A54209D10B4E0C4C02F082F8A41BA410AE
:1031D0000025A54205D170BD56F825309847013528
:1031E000EEE756F8253098470135F2E78855000894
:1031F00088550008885500088C550008024403468D
:10320000934200D1704703F8011BF9E72DE9FF470E
:1032100055EC104B0D9FDDF830A0002D0E46914669
:103220001946B8BF22462B4627F02007BBBF05F141
:1032300000431D4600232D23B8BF1446462F0B70B4
:1032400004D0452F00D10136022100E0032103AB59
:10325000019302AB00933246534645EC104B00F00D
:10326000F3FC472F804602D119F0010F26D0462FDC
:1032700008EB060911D198F80030302B0AD1002252
:10328000002320462946FDF723FC18B9C6F10106A4
:10329000CAF80060DAF80030994400220023204682
:1032A0002946FDF715FC38B93022039B994505D90D
:1032B000591C03911A70F8E7CDF80C90039B0E9AF5
:1032C000A3EB08034046136004B0BDE8F087F7B5F0
:1032D00003460029B8BF494203F8022BB4BF2D2290
:1032E0002B220929427020DD0DF1070217460A261C
:1032F00091FBF6F506FB15113031092D02F8011C82
:1033000002F1FF34294609DC3031023A04F8011C8D
:10331000BA421C4604D3201A03B0F0BD2246E7E7A8
:1033200012F8011B03F8011BF2E730221C4611447E
:1033300004F8022B5970EEE72DE9F04F8DB00C46E2
:10334000DDF8588016461F46054601F04BFA036823
:1033500004931846FCF744FF00230A93D8F8003082
:103360000590073323F0070303F1080294F818A02F
:10337000D4F800B0C8F80020D3E90023C4E9122330
:10338000D4E9128929F000430793CDF818804FF053
:10339000FF32A54BDDE90601FDF7CCFB002840F02C
:1033A000FB814FF0FF32A04BDDE90601FDF7A4FBE6
:1033B000002840F0F1810022002340464946FDF7F5
:1033C00091FB10B12D2384F84330984B984ABAF101
:1033D000470F8CBF9046984603232BF004022361CD
:1033E00022604FF00009009733460BAA2146284679
:1033F00000F0E2F9013040F093804FF0FF300DB063
:10340000BDE8F08F61684B1C4BF480623FD106230E
:103410006360002303930AAB029309AB009349EC6A
:10342000108B0DF123032260CDF804A061682846BB
:10343000FFF7ECFE0AF0DF03472B804609D1099B1A
:10344000D81C02DB6268934257DDAAF1020A5FFAD8
:103450008AFABAF1650F099934D80139524604F154
:1034600050000991FFF733FF0A9A8318012A814619
:10347000236102DC2268D10701D5013323619DF865
:103480002330002BAFD02D2384F84330ABE7BAF1C3
:10349000670F02D0BAF1470FBBD189B10023039364
:1034A0000AAB029309AB009349EC108B2260CDF874
:1034B00004A00DF123032846FFF7A8FE8046BEE7CF
:1034C0000123A5E7BAF1660F19D1002963680CDD65
:1034D000216113B92268D20702D501330B4423615D
:1034E000099BA3654FF00009C9E713B92268D0070B
:1034F00001D50233F3E70123F1E74FF0670A099B97
:103500000A9A934205DB22682361D107E8D501338B
:10351000E5E7002BD4BFC3F1020301231344DEE728
:1035200023685A0507D42369424631462846B847DE
:1035300001302BD161E7BAF1650F40F2E280002241
:103540000023D4E91201FDF7C3FA00283CD001237F
:10355000384A31462846B84701303FF44EAF0A9BFF
:10356000099A9A4202DB2368D8070FD5059B049A73
:1035700031462846B84701303FF43FAF4FF00008CE
:1035800004F11A090A9B013B984512DB23689B074B
:1035900009D54FF0000804F11909E3680B9A9B1A4A
:1035A0009845C0F2EE80E0680B9B9842B8BF184681
:1035B00025E701234A4631462846B84701303FF403
:1035C0001CAF08F10108DDE7099B002B34DC012367
:1035D000184A31462846B84701303FF40EAF099BE0
:1035E00023B90A9B13B92368D907CFD5059B049A41
:1035F00031462846B84701303FF4FFAE4FF000098E
:1036000004F11A0A099B5B42994501DB0A9B8BE78F
:103610000123524631462846B84701303FF4EDAE0B
:1036200009F10109EEE700BFFFFFEF7F2B53000810
:103630002F5300083B5300080A9AA36D9A42A8BF73
:103640001A46002A914638DC04F11A034FF0000BA9
:1036500029EAE9790693D4F858A0AAEB09039B4517
:1036600033DB0A9B099A9A423ADB2368DA0737D49C
:103670000A9B0999A3EB0A02A3EB01099145A8BF94
:103680009146B9F1000F33DC4FF0000829EAE979DF
:1036900004F11A0A099A0A9B9B1AA3EB090398459D
:1036A000BFF674AF0123524631462846B847013071
:1036B0003FF4A3AE08F10108ECE713463146424659
:1036C0002846B8470130BFD197E60123069A314614
:1036D0002846B84701303FF490AE0BF1010BBAE732
:1036E000059B049A31462846B8470130C0D184E68C
:1036F0004B4608EB0A0231462846B8470130C3D191
:103700007BE60A9A012A01DCDB0737D50123424612
:1037100031462846B84701303FF46FAE059B049A06
:1037200031462846B84701303FF467AE00220023F7
:10373000D4E91201FDF7CCF958B14FF0000804F1BB
:103740001A0A0A9B013B98450DDB4B4604F15002D7
:10375000EBE60A9B08F10102013B31462846B847D7
:103760000130F2D149E60123524631462846B84796
:1037700001303FF442AE08F10108E2E7012342467E
:10378000EBE701234A4631462846B84701303FF46B
:1037900034AE08F1010800E742464B464046494630
:1037A000FDF7C8F900283FF42DAE014B014A0EE6A3
:1037B00033530008375300082DE9F04791461F4660
:1037C0008A680B69DDF820809342B8BF1346C9F8B8
:1037D000003091F8432006460C4612B10133C9F877
:1037E00000302368990642BFD9F800300233C9F887
:1037F0000030256815F0060507D104F1190AE368C1
:10380000D9F800209B1A9D4229DB94F843302268A6
:10381000003318BF012392062ED404F14302394627
:103820003046C047013021D02368E568D9F8002030
:1038300003F00603042B08BFAD1AA36822690CBF6E
:1038400025EAE57500259342C4BF9B1AED184FF099
:1038500000091A344D451BD10020BDE8F087012333
:10386000524639463046C047013003D14FF0FF3051
:10387000BDE8F0870135C2E7E1185A1C302081F815
:103880004300224494F8451082F843100233C4E701
:103890000123224639463046C0470130E6D009F1BF
:1038A0000109D7E72DE9F04317460A7E85B06E2A55
:1038B000984606460C460C9B01F1430E00F0BC8076
:1038C0001AD8632A2ED00AD8002A00F0C880582AB5
:1038D00000F08A8004F1420584F842202AE0642A3C
:1038E00001D0692AF6D121681A6811F0800F23D01F
:1038F000111D1960136827E0732A00F0B48008D8FE
:103900006F2A2AD0702AE5D10A6842F020020A60A4
:1039100003E0752A21D0782ADCD1782284F845206A
:103920006E4964E01A6801F14205111D19601368BF
:1039300084F842300123A3E011F0400F02F10401AA
:103940001960D7D0B2F90030002B03DA2D225B4288
:1039500084F8432062490A2217E02068196810F0B1
:10396000800F03D0081D18600B6806E010F0400FB0
:1039700001F104001860F7D00B8859496F2A14BF71
:103980000A220822002084F843006568A560002D03
:10399000C0F29C80206820F004002060002B3FD102
:1039A000002D40F095807546082A0BD12368DA0770
:1039B00008D5236962689A42DEBF302305F8013CCE
:1039C00005F1FF35AEEB05032361CDF800803B46E2
:1039D00003AA21463046FFF7EFFE013055D14FF0E4
:1039E000FF3005B0BDE8F08381F845203C492268EE
:1039F000186812F0800F00F104051D6001D0036803
:103A000002E05506FBD50388D00744BF42F02002F0
:103A100022601BB9226822F0200222601022B1E746
:103A20007546B3FBF2F002FB1033CB5C05F8013DA9
:103A300003460028F5D1B7E708681A68496910F00D
:103A4000800F04D0101D18601368196007E010F093
:103A5000400F02F1040018601368F6D019800023AB
:103A600023617546B1E71A68111D1960156862680F
:103A700000212846FCF7BCFB08B1401B606063686E
:103A80002361002384F843309FE723692A4639469F
:103A90003046C0470130A2D023689B0707D50025D8
:103AA00004F11909E368039A9B1A9D4205DBE0685B
:103AB000039B9842B8BF184693E701234A4639460C
:103AC0003046C04701308AD00135EBE7002BA7D143
:103AD0000B7884F8423004F1420565E74E53000844
:103AE0003D5300080EB400B59CB04FF402711DABFD
:103AF000ADF81410029006906FF000410A4804914E
:103B000007914FF6FF7153F8042BADF816100068BB
:103B1000019302A901F06EFA029B00221A701CB0F8
:103B20005DF804EB03B070470C0000202DE9F74F5F
:103B300003690C699C42804600F38280013C01F1DC
:103B400014074FEA840E00F1140657F8245056F873
:103B5000240006EB0E03013507EB0E090193B0FBC1
:103B6000F5F595B34FF0000A3846B446D34650F801
:103B7000042B93B205FB03A34FEA134A9BB2ABEBB2
:103B80000303120CBCF800B005FB02A213FA8BF37E
:103B90004FEA124A1FFA82FBDCF80020CBEB1242FC
:103BA00002EB23429BB243EA024381454FEA224B98
:103BB0004CF8043BDBD256F80E3033B9019B043B82
:103BC0009E421A4630D3C8F81040404601F035F8FE
:103BD000002825DB013530464FF0000E57F8042B46
:103BE000D0F800C093B2AEEB0303120C13FA8CF3BF
:103BF000C2EB1C4202EB23429BB243EA0243B945AB
:103C00004FEA224E40F8043BE8D256F8242006EB57
:103C100084032AB9043B9E421A460BD3C8F81040CD
:103C2000284603B0BDE8F08F1268043B002ACAD1D1
:103C3000013CC5E71268043B002AEFD1013CEAE7EA
:103C40000020EEE7000000002DE9F04F57EC106B6C
:103C500097B0CDE90067466A079104460A920F9330
:103C6000209D3EB9102000F0CBFD6062466086606A
:103C70000660C660636A196851B15A684A600123D8
:103C800093408B60204600F002FE636A00221A60B7
:103C9000019B002BBFBF01232B60019B23F000433E
:103CA000B2BF019300232B60DDF80480A84B33EAF8
:103CB00008031BD10F9A42F20F731360009B23B9C4
:103CC000C8F31300002800F07885219B53B9A14B5D
:103CD00021E0A14B02930833219A1360029817B098
:103CE000BDE8F08F9B4B02930333F5E7DDE90067F6
:103CF0000022002330463946FCF7EAFE814660B1D7
:103D00000F9A01231360219B002B00F05385934BE6
:103D1000219A1360013B0293E0E714AA15A947EC2E
:103D2000106B204601F001F8C8F30A558246002DB9
:103D30007ED0C7F3130343F07F51304641F4401166
:103D4000A5F2FF35CDF848900022854BFCF7A4FA88
:103D500079A3D3E90023FCF753FC79A3D3E900232B
:103D6000FCF79CFA064628460F46FCF7E3FB76A3D1
:103D7000D3E90023FCF744FC02460B4630463946A3
:103D8000FCF78CFA06460F46FCF7EAFE0022834653
:103D9000002330463946FCF7A5FE58B15846FCF7DB
:103DA000C9FB02460B4630463946FCF791FE08B97E
:103DB0000BF1FF3BBBF1160F59D86A4901EBCB0160
:103DC000DDE90023D1E90001FCF7AAFE002850D06C
:103DD0000BF1FF3B00230E93149B5D1B6B1E0693A0
:103DE00045BFC5F101030593002300234CBF069393
:103DF0000593BBF1000F3EDB069BCDF82CB05B4476
:103E0000069300230893079B092B00F2AF80052B34
:103E1000C4BF043B0793079BA3F10203CCBF00265A
:103E20000126032B00F2AE80DFE803F082842F77B7
:103E3000159B149D1D4405F23243202B11DD009A81
:103E400005F21240C3F1400322FA00F008FA03F32E
:103E50001843FCF75FFB0123A1F1F871013D1293B8
:103E600072E7C3F12000009B03FA00F0F1E70123A1
:103E7000B1E70E90B0E7059BA3EB0B030593CBF1E5
:103E80000003089300230B93BDE7012309930A9BCA
:103E9000002B7ADD04930393656A00226A60042193
:103EA00001F114029A4275D96968204600F0BBFC02
:103EB000636A28601B680293039B0E2B00F2E58067
:103EC000002E00F0E2809DED007BBBF1000F8DED38
:103ED0000C7B74DD234A0BF00F034FEA2B1602EB29
:103EE000C303F006D3E9008959D51F4B51EC170BDA
:103EF000D3E90823FCF7AEFCCDE9000106F00F067C
:103F00000325194F002E4CD142464B46DDE90001F6
:103F1000FCF7A0FCCDE900016AE0012309930A9BAC
:103F20005B4404930133012B0393B8BF0123B3E730
:103F30000023ABE70023F1E761436F63A787D23F1C
:103F4000B3C8608B288AC63FFB799F501344D33F88
:103F50000000F07F685300085F5300083C530008DE
:103F60000000F83F98530008705300080126002312
:103F7000079309964FF0FF33049303930022122313
:103F80000A9289E701230993F4E701230493039339
:103F90001A46F5E76A6801326A60490080E702253F
:103FA000AFE7F10708D540464946D7E90023FCF7BB
:103FB00027FB01358046894676100837A2E700F0D6
:103FC0009D80CBF100069F4B9F4F06F00F0203EB45
:103FD000C203D3E90023DDE90C01FCF711FBCDE9B5
:103FE0000001361100230225002E7CD1002B91D137
:103FF0000E9B002B00F08480DDE900890022934BAA
:1040000040464946FCF76EFD002879D0039B002B03
:1040100076D0049B002B34DD00228D4B4046494670
:10402000FCF7EEFACDE90001049E0BF1FF370135F4
:104030002846FCF77FFADDE90023FCF7E1FA0022CD
:10404000844BFCF72BF98046A1F15079002E5AD110
:104050000022814BDDE90001FCF71EF942464B4688
:10406000CDE90001FCF75CFD002840F09B82424650
:1040700009F10043DDE90001FCF734FD002840F0C0
:104080008F82DDE90C23CDE90023159B002BC0F2C4
:104090005081BBF10E0F00F34C816A4B03EBCB0355
:1040A000D3E900890A9B002B80F2DA80039B002B66
:1040B00000F3D68040F073820022674B40464946A9
:1040C000FCF79EFADDE90023FCF720FD039E37464E
:1040D000002840F04A82029B029A5D1C3123137033
:1040E0000BF1010B45E2F20705D5D7E90023FCF7F8
:1040F00087FA013501237610083775E7022577E73F
:104100005F46039E94E7029A4E4B32441392099AFB
:10411000711E002A48D003EBC103D3E9002300201D
:104120004E49FCF797FB42464B46FCF7B5F8029D1B
:1041300080468946DDE90001FCF712FD0646FCF7E2
:10414000F9F902460B46DDE90001FCF7A5F8303627
:1041500005F8016B42464B46CDE90001FCF7C2FC75
:10416000002865D1DDE9002300203849FCF794F8E8
:1041700042464B46FCF7B6FC002840F0BA80139B41
:104180009D423FF47EAF0022314B40464946FCF74A
:1041900037FA0022804689462D4BDDE90001FCF705
:1041A0002FFACDE90001C5E703EBC10142464B46BA
:1041B000D1E90001FCF724FACDE91001029DDDE907
:1041C0000001FCF7CDFC0646FCF7B4F93036024698
:1041D0000B46DDE90001FCF75FF805F8016B139B66
:1041E000AB42804689464FF0000225D11B4BDDE9EA
:1041F0001001FCF753F802460B4640464946FCF7CF
:104200008FFC002875D1DDE9102300201349FCF74D
:1042100043F802460B4640464946FCF763FC00283B
:104220003FF42FAF15F8013C302B05F1FF3201D0E0
:10423000BB464DE01546F5E7054BFCF7E1F9CDE946
:104240000001BCE798530008705300080000F03FDD
:104250000000244000001C40000014400000E03F2B
:10426000DDE90067029D42464B4630463946FCF781
:10427000F1FAFCF775FC0090FCF75CF942464B46FE
:10428000FCF7BEF902460B4630463946FCF704F807
:10429000009E039F303605F8016B029EAE1BB742AD
:1042A00002460B4638D1FBF7F9FF06460F46024699
:1042B0000B4640464946FCF715FCC8B932463B461A
:1042C00040464946FCF704FC10B1009BDB070FD4C5
:1042D0005146204600F0DBFA00230F9A2B700BF1B9
:1042E00001031360219B002B3FF4F8AC1D60F5E443
:1042F0005F4615F8012C392A05F1FF3306D1029AE1
:104300009A4207D130231370013713461A780132CD
:104310001A708DE71D46ECE70022A44BFCF770F9FC
:104320000022002306460F46FCF7D2FB00289AD055
:10433000CEE7099A002A00F0CD80079A012A00F3FF
:10434000AF80129A002A00F0A78003F23343089E40
:10435000059D059A1A440592069A01211A442046A1
:10436000069200F034FB0746002D0CDD069B002B67
:1043700009DDAB42059AA8BF2B46D21A0592069AD0
:10438000ED1AD31A0693089BF3B1099B002B00F09A
:10439000A580002E10DD39463246204600F0AEFBE7
:1043A000524601460746204600F01AFB5146804619
:1043B000204600F06CFAC246089B9A1B04D0514676
:1043C000204600F09BFB82460121204600F0FFFAC8
:1043D0000B9B002B064640F383801A46014620467D
:1043E00000F08CFB079B012B06467CDD4FF000089C
:1043F000336906EB8303186900F09BFAC0F12000D3
:10440000069B184410F01F0000F09680C0F12003B6
:10441000042B40F38780059BC0F11C0003440593E7
:10442000069B054403440693059B002B05DD51467E
:104430001A46204600F0B0FB8246069B002B05DDA5
:1044400031461A46204600F0A7FB06460E9B002B7D
:1044500074D03146504600F0F0FB00286EDA00239D
:1044600051460A22204600F029FA099B0BF1FF3B36
:104470008246002B00F0A881002339460A222046FC
:1044800000F01CFA049B002B074600F3C880079B32
:10449000022B40F3C48059E0149BC3F1360356E766
:1044A000039B5E1E089BB342BFBF089B0896F21A8F
:1044B0000B9BB6BF9B189E1B0B93039BB8BF00269C
:1044C000002BB9BF059B039A059D039BBCBF9D1A9A
:1044D00000233EE7089E059D099F45E7089A6EE781
:1044E000079B012B19DC009BBBB9019BC3F3130392
:1044F0009BB9019B23F000431B0D1B0583B1059B5A
:1045000001330593069B013306934FF001080B9B83
:10451000002B7FF46DAF012072E74FF00008F6E743
:104520009846F4E780D0059A1C331A440592069AFF
:104530001A441D44134676E70346F4E7039B002B19
:1045400036DC079B022B33DD039B0493049B63B98A
:1045500031460522204600F0B1F901460646504694
:1045600000F06BFB00283FF7B6AD0A9B029D6FEA97
:10457000030B002303933146204600F088F9002FF7
:104580003FF4A6AE039B2BB1BB4203D01946204695
:1045900000F07DF93946204600F079F998E60026CA
:1045A0003746E2E7BB46374695E500BF00002440AA
:1045B000099B93BB039B0493029D31465046FFF732
:1045C000B5FA00F1300905F8019B029B049AEB1A39
:1045D0009A4200F3DC80029B012AACBF9B18013396
:1045E00098460023039351460122204600F0D4FA56
:1045F0003146824600F021FB002800F38D8003D174
:1046000019F0010F40F08880454615F8013C302B29
:1046100005F1FF32AFD11546F7E7039B0493002D58
:1046200005DD39462A46204600F0B6FA0746B8F1BD
:10463000000F4CD07968204600F0F5F83A69023254
:104640000546920007F10C010C3000F0E1F8012260
:104650002946204600F0A0FA009BDDF80880039769
:1046600003F001030746059331465046FFF75EFA13
:104670000399054600F13009504600F0DEFA3A464B
:1046800000903146204600F0F2FAC368024603BBB0
:1046900001460690504600F0D0FA069A03461146AD
:1046A0002046069300F0F3F8069BA3B9079A92B947
:1046B000059A82B9B9F1390F29D0009B002B01DD91
:1046C00005F1310908F1010588F8009053E73846F3
:1046D000C2E70123E3E7009A002A04DB25D1079A09
:1046E0001ABB059A0ABB002BECDD5146012220467D
:1046F00000F052FA3146824600F09FFA002803DCAF
:10470000E0D119F0010FDDD0B9F1390FD8D139233B
:1047100088F8003008F10108454615F8013C392BAE
:1047200005F1FF323BD0013340E0002B08F10105D9
:1047300005DDB9F1390FEAD009F10109C4E7029B9F
:10474000049A05F8019CEB1A9342A8463FF44BAF3C
:10475000514600230A22204600F0B0F8039B03993B
:10476000BB4282464FF000034FF00A02204604D1BC
:1047700000F0A4F80390074676E700F09FF80023C6
:1047800003900A223946204600F098F8F3E7514694
:1047900000230A22204600F091F882460DE7029B92
:1047A000934205D1029A0BF1010B31231370E2E61B
:1047B0001546B2E7094BFFF7AEBA219B002B7FF4F9
:1047C00088AA074BFFF7A7BA049B002B3FF7F4AE6C
:1047D000079B022B7FF7F0AEB8E600BF3B53000803
:1047E0005F530008044B1B68186A044B002808BF7D
:1047F0001846F030704700BF0C0000207000002009
:10480000024B0146186800F03BBB00BF0C000020C3
:1048100010B5431E0A44914200D110BD11F8014B5E
:1048200003F8014FF7E770B5456A04460E463DB9F7
:104830001020FFF7E5FF6062456085600560C56098
:10484000656AEB6883B1636ADB6853F82600B8B920
:10485000012101FA06F56A1D9200204600F0B4FA23
:1048600060B1466085600EE021220421204600F000
:10487000ABFA636AE860DB68002BE4D1002070BD0E
:10488000026843F8262000230361C36070BD70B541
:10489000446A06460D463CB91020FFF7B1FF70622E
:1048A000446084600460C4603DB1736A6A68DB6818
:1048B00053F82210296043F8225070BD2DE9F041D1
:1048C0000D691F4606460C4601F1140E0023DEF862
:1048D000000081B202FB01710F0C000C02FB0070A2
:1048E00089B2013301EB00419D424FEA10474EF877
:1048F000041BECDCD7B1A3689D4212DB6168304633
:104900000131FFF790FF2269023204F10C01804669
:1049100092000C30FFF77CFF21463046FFF7B7FFCF
:10492000444604EB850301355F6125612046BDE8FF
:10493000F081020C12040346B2B90304102013F0F4
:104940007F4F04BF1B02083013F0704F04BF1B01E0
:10495000043013F0404F04BF9B000230002B06DBF5
:104960005B0003D5013070470020E8E72020704746
:10497000036813F0070201460BD0DA0723D4980727
:1049800049BF5B089B0801200B605CBF0B600220E5
:10499000704798B2A8B91B0C102013F0FF0F04BF8A
:1049A0001B0A08301A0704BF1B0904309A0704BF0A
:1049B0009B080230DA0702D45B0806D001300B6096
:1049C00070471046E9E7002070472020704710B577
:1049D0000C460121FFF727FF01224461026110BD4F
:1049E0002DE9F74F14460A6923699A42B8BF0B466E
:1049F0008946BCBFA1461C46D9F81070D4F810A057
:104A0000D9F80830D9F8041007EB0A069E42C8BF4F
:104A10000131FFF708FF00F1140505EB86082B466E
:104A20000022434516D304F1140209F1140102EBEC
:104A30008A0301EB87070193019C944213460CD82B
:104A4000002E03DD58F8043D002B54D0066103B05E
:104A5000BDE8F08F43F8042BE3E7B3F800A004327D
:104A6000BAF1000F20D0AE4689464FF0000C59F83D
:104A7000044BBEF800B0A3B20AFB03B34FEA144BD9
:104A8000DEF8004063444FEA144C0AFB0BC404EB0D
:104A900013449BB243EA04434F454FEA144C4EF88B
:104AA000043BE4D8CEF800C032F8029CB9F1000F04
:104AB0001FD02B68AE468C464FF0000ABCF8004071
:104AC000BEF802B009FB04B4A2449BB243EA0A4315
:104AD0004EF8043B5CF8043BBEF800401B0C09FB9D
:104AE000034303EB1A4367454FEA134AE6D8CEF86F
:104AF00000300435A0E7013EA2E700002DE9F843AD
:104B0000154612F0030206460F4607D0013A214C23
:104B1000002354F82220FFF7D1FE0746AD1035D010
:104B2000746A3CB91020FFF76BFE706244608460C9
:104B30000460C460D6F82480D8F808404CB940F22C
:104B400071213046FFF743FF0023C8F808000446F0
:104B500003604FF00008EB070AD53946224630467D
:104B6000FFF73EFF394681463046FFF790FE4F463D
:104B70006D100BD0206838B9224621463046FFF729
:104B80002FFF2060C0F800800446E4E73846BDE807
:104B9000F88300BF605400082DE9F0470C464FEA47
:104BA000621A236949680AEB0309A3680746164697
:104BB00009F10105AB4231DB3846FFF734FE002234
:104BC000804600F11403114652452ADB20692AEA87
:104BD000EA7A04F1140116F01F0203EB8A0301EBD9
:104BE000800E22D0C2F1200C00200E689640304387
:104BF00043F8040B51F8040B8E4520FA0CF0F4D85E
:104C0000186008B109F10205013D3846C8F8105096
:104C10002146FFF73CFE4046BDE8F08701315B00CE
:104C2000C8E743F822100132CEE7043B51F8042BC9
:104C300043F8042F8E45F9D8E6E703690A699B1A01
:104C400030B50CD19200143014318418114454F84A
:104C5000045D51F8042D954203D005D30123184675
:104C600030BDA042F3D3FAE74FF0FF33F7E72DE969
:104C7000F0470D460746114628461446FFF7DDFF6C
:104C8000061E08D131463846FFF7CDFD01230361EA
:104C90004661BDE8F087A4BF23462C4638466168CC
:104CA000A6BF1D4600260126FFF7BDFD2B69C66085
:104CB000266905F1140904F1140202EB860709EBD9
:104CC000830800F114054FF0000C52F804AB59F8BA
:104CD000044B1CFA8AF1A3B2C91A230CC3EB1A4382
:104CE00003EB214389B24FEA234CC84541EA034311
:104CF000964645F8043BE8D8BE4505D355F8043D33
:104D00008BB10661BDE8F0875EF8041B1CFA81F3E5
:104D10001A1402EB11429BB243EA02434FEA224CBF
:104D200045F8043BE8E7013EE8E72DE9F7430E4686
:104D3000012159EC108B1546FFF775FDC9F30A5494
:104D40000746C9F3130334BB0193B8F1000F27D012
:104D500002A840F8088DFFF70BFE0099F0B1019A08
:104D6000C0F1200302FA03F30B43C2407B610192BE
:104D7000019BBB61002B14BF022101213961C4B129
:104D8000A4F2334404443460C0F13500286038464E
:104D900003B0BDE8F08343F48013D5E77961E7E71A
:104DA00001A8FFF7E5FD019B7B61012139612030FE
:104DB000E5E707EB8103A0F2324030601869FFF7A6
:104DC000B8FDC0EB4110E1E738B502FB01F4214624
:104DD00000F056F8054618B122460021FEF70EFAFB
:104DE000284638BD38B50546002945D051F8043C61
:104DF0000C1F002BB8BFE41800F02CFA1F4A1368F0
:104E0000104633B9636014602846BDE8384000F0AE
:104E100022BAA3420CD921686218934204BF1A68CF
:104E20005B68636004BF521822600460ECE71346BD
:104E30005A680AB1A242FAD919685818A0420BD18F
:104E400020680144581882421960DDD11068526808
:104E50005A6001441960D7E702D90C232B60D3E7CD
:104E6000206821188A4204BF11685268626004BF3A
:104E7000091821605C60C7E738BD00BF0002002050
:104E800070B5CD1C25F0030508350C2D38BF0C2559
:104E9000002D064601DBA94203D90C233360002014
:104EA00070BD00F0D7F9234A1468214691B9224C0D
:104EB00023681BB9304600F091F92060294630463E
:104EC00000F08CF9431C26D10C233360304600F0EF
:104ED000C2F9E4E70B685B1B1AD40B2B0FD90B60EC
:104EE000CD50CC18304600F0B6F904F10B00231D6C
:104EF00020F00700C31A1BD05A42E25070BD8C420A
:104F00000DBF63684B686360136018BF0C46E9E728
:104F10000C464968CAE7C41C24F00304A04205D02B
:104F2000211A304600F05AF90130CDD02560D9E77A
:104F300070BD00BF00020020040200202DE9F047F0
:104F40008E689E4282460C469146984635D88A899C
:104F500012F4906F31D0256809696F1A65690223D0
:104F600005EB450595FBF3F508F101033B449D4234
:104F700038BF1D46530531D52946FFF781FF064648
:104F800050B90C23CAF80030A38943F04003A38131
:104F90004FF0FF30BDE8F0873A462169FFF738FC53
:104FA000A38923F4906343F08003A38126616561A4
:104FB0003E44ED1B2660A5604646464528BF464652
:104FC00032464946206800F02BF9A3689B1BA3607A
:104FD00023681E4426600020BDE8F0872A4600F0C2
:104FE0003BF906460028E1D121695046FFF7FAFE59
:104FF000C7E700002DE9F04F9DB0804603938B89F1
:105000001C060D4616460FD50B696BB94021FFF7FC
:1050100037FF2860286128B90C23C8F800304FF00A
:10502000FF30C5E040236B610023099320238DF8F6
:10503000293030238DF82A304FF0010B37463C469B
:1050400014F8013B002B3CD1B7EB060A0BD05346BA
:10505000324629464046FFF771FF013000F0A38039
:10506000099B534409933B78002B00F09C8000235C
:105070004FF0FF3204930793059206938DF8533057
:105080001A93052221785048FBF7B2F8671C049B5D
:10509000D8B9D90644BF20228DF853201A0744BF3F
:1050A0002B228DF8532022782A2A16D0079A002125
:1050B0000A20274601343B78303B092B51D9C9B12E
:1050C00011E0252BC0D02746B9E73F4A801A0BFADA
:1050D00000F0184304903C46D3E7039A111D126870
:1050E0000391002A01DB079204E0524243F00203DD
:1050F000079204933B782E2B0ED17B782A2B07F155
:10510000010132D1039B1A1D1B680392002BB8BF0B
:105110004FF0FF33023705932C4C39780322204699
:10512000FBF766F838B14023001B03FA00F0049B3C
:10513000034304930137397825488DF82810062257
:105140007E1CFBF755F8002835D0224BFBB9039B9A
:10515000073323F0070308330393099B4B44099358
:105160006CE700FB02320121A3E7002305931846F8
:105170000A240F4601313A78303A092A03D9002B24
:10518000CAD00590C8E704FB00200123F1E703AB78
:1051900000932A46104B04A94046FEF7CDF8B0F123
:1051A000FF3F8146D9D1AB895B063FF538AF0998FF
:1051B0001DB0BDE8F08F03AB00932A46064B04A94F
:1051C0004046FEF76FFBEAE76C5400087254000893
:1051D00076540008393300083D4F000838B5064CB6
:1051E0000023054608462360FDF7F8FD431C02D165
:1051F000236803B12B6038BD1C04002082B001B9C4
:1052000001A942B14BB113780B601278101C18BF82
:10521000012002B070471046FBE76FF00100F8E78D
:10522000884210B501EB020303D8421E99420CD10B
:1052300010BD9842F9D28118D21AD34200D110BDC4
:1052400013F8014D01F8014DF7E711F8014B02F891
:10525000014FEBE770477047F8B5074614460E4616
:1052600021B91146BDE8F840FFF70ABE22B9FFF7A1
:10527000B9FD25462846F8BD00F021F884420FD933
:1052800021463846FFF7FCFD05460028F2D031469E
:105290002246FFF7BDFA31463846FFF7A3FDE9E79E
:1052A0003546E7E749B1FF2A85BF8A2303600A70C4
:1052B0004FF0FF3098BF012070470846704751F803
:1052C000040C0028A0F10400BCBF0B58C0187047A4
:1052D000F8B500BFF8BC08BC9E467047F8B500BFE3
:0852E000F8BC08BC9E467047B3
:1052E80002030405060708090A0B0C0D0E0F10101F
:1052F8000102030405060708090A0B0C0D0E0F101E
:1053080001040802252E31660A0D00000000000085
:10531800000000010203040607080900000000015C
:10532800020304494E4600696E66004E414E006E07
:10533800616E003000303132333435363738394118
:1053480042434445460030313233343536373839F4
:1053580061626364656600496E66696E69747900A6
:105368004E614E00000000000080E03779C34143E1
:10537800176E05B5B5B89346F5F93FE9034F384DB3
:10538800321D30F94877825A3CBF737FDD4F15755F
:10539800000000000000F03F000000000000244072
:1053A80000000000000059400000000000408F404D
:1053B800000000000088C34000000000006AF840B8
:1053C8000000000080842E4100000000D0126341DC
:1053D8000000000084D797410000000065CDCD4152
:1053E800000000205FA00242000000E87648374233
:1053F800000000A2941A6D42000040E59C30A242D1
:105408000000901EC4BCD64200003426F56B0C4345
:105418000080E03779C3414300A0D88557347643EC
:1054280000C84E676DC1AB43003D9160E458E1434D
:10543800408CB5781DAF154450EFE2D6E41A4B44C2
:1054480092D54D06CFF08044F64AE1C7022DB54407
:10545800B49DD9794378EA4405000000190000009A
:105468007D000000232D302B2000686C4C00656601
:1054780067454647004300504F534958002E0000E7
:1054880020202020202020202028282828282020EC
:105498002020202020202020202020202020202004
:1054A800881010101010101010101010101010107C
:1054B800040404040404040404041010101010105C
:1054C8001041414141414101010101010101010135
:1054D8000101010101010101010101101010101069
:1054E8001042424242424202020202020202020206
:1054F800020202020202020202020210101010202E
:105508000000000000000000000000000000000093
:105518000000000000000000000000000000000083
:105528000000000000000000000000000000000073
:105538000000000000000000000000000000000063
:105548000000000000000000000000000000000053
:105558000000000000000000000000000000000043
:105568000000000000000000000000000000000033
:105578000000000000000000000000000000000023
:04558800C501000851
:04558C00A101000871
:10559000010000001000000000127A00100000203E
:1055A00000000000000000000000000000000000FB
:1055B00000000000000000000000000000000000EB
:1055C00000000000000000000000000000000000DB
:1055D00000000000000000000000000000000000CB
:1055E00000000000000000000000000000000000BB
:1055F00000000000000000000000000000000000AB
:105600004300000000000000000000000000000057
:10561000000000000000000000000000000000008A
:105620004300000000000000000000000000000037
:10563000000000000000000000000000000000006A
:105640004300000000000000000000000000000017
:10565000000000000000000000000000000000004A
:1056600043000000000000000000000000000000F7
:10567000000000000000000000000000000000002A
:1056800043000000000000000000000000000000D7
:10569000000000000000000000000000000000000A
:1056A00043000000000000000000000000000000B7
:1056B00000000000000000000000000000000000EA
:1056C0004300000000000000000000000000000097
:1056D00000000000000000000000000000000000CA
:1056E000A5520008FD510008000000008754000882
:1056F0008554000812530008125300081253000882
:1057000012530008125300081253000812530008E5
:105710001253000812530008FFFFFFFFFFFFFFFFB7
:10572000FFFFFFFFFFFF0000010041534349490015
:105730000000000000000000000000000000000069
:1057400000000000000000000000415343494900F0
:105750000000000000000000000000000000000049
:0C5760000000000000000000000000003D
:040000050800315569
:00000001FF
